:020000020000FC
:0600000029C064C06DC0C0
:100040003F065B4F666D7D077F6F22C026C02AC0CA
:100050002EC032C004E00EBF0FE50DBF5ED04ED003
:1000600069D075D0E9D0789490FD03D091FD889542
:10007000FBCF00916100002301F09E7F00916000A2
:100080000530F8F4E5E2F0E0E00F1127F11F0994E4
:100090000091680010916700D4C000916700109132
:1000A0006600CFC00091670010916600CAC0009141
:1000B000670010916600C5C000916700109166004E
:1000C000C0C000E000936000D8CF08950F930FB731
:1000D0000F93916004E090270F910FBF0F91189537
:1000E0000F930FB70F930BB70F770BBF06EF02BF3E
:1000F00005E003BF0F910FBF0F9118951124002742
:1001000099270093610002E00093600003E0202E35
:1001100000EF302E802F402E08950FE207BBC198CC
:10012000C09A8A98929AA498A598AC9AAD9A00E041
:1001300001BB089503E005BF00E40BBF08E005BF65
:100140000BB700680BBF09B7016009BF08955CD009
:1001500060D000ED64D00EE062D000E060D069D0E5
:1001600001D008950F9355D000ED59D000E057D03D
:1001700050D001ED54D057D003B10093660053D056
:1001800003B10093670052D003B10093680051D0CF
:100190000F9108950F933DD000ED41D000E03FD086
:1001A00038D001ED3CD03FD003B1009366003BD086
:1001B00003B10093670037D003B10093680033D0D8
:1001C00003B1009369002FD003B100936A002BD0D4
:1001D00003B100936B002AD003B100936C0029D0C7
:1001E0000F9108950F9315D000ED19D000E017D0AE
:1001F0000091660014D00091670011D00091680052
:100200000ED017D00F9108950BE000B900E001B9AE
:10021000089504EA06BF06B707FFFDCF089503B9A6
:1002200004E806BFF8CF04EC06BFF5CF04E806BF2C
:10023000F2CF04E906BF089501E50DB900E00EB95B
:1002400008952F93202F22952F7028D0209362009D
:10025000202F2F7023D020936300212F22952F7001
:100260001DD020936400212F2F7018D0209365009B
:10027000609165000ED0609164000BD060916300C6
:1002800008D06091620005D0C29A0000C2982F91F8
:1002900008956FB96EB167FFFDCF0895EF93FF9397
:1002A0001F93E0E4F0E0E20F1127F11F24911F916A
:0602B000FF91EF9108959B
:00000001FF
