:020000020000FC
:0400000029C05FC1F3
:100040003F065B4F666D7D077F6FBCC0C0C0C5C0FB
:10005000C3C0C8C004E00EBF0FE50DBF1CD009D05F
:1000600027D033D046D1789490FDC0D091FD8895AB
:10007000FBCF11240027992700E00093610000E0E6
:100080000093600003E0202E00EF302E802F402EE2
:1000900001E0502E08950FE207BBC198C09A8A98DC
:1000A000929AA498A598AC9AAD9A00E001BB0895E5
:1000B00003E005BF00E40BBF08E005BF0BB7006815
:1000C0000BBF09B7016009BF089564D068D000ED87
:1000D0006CD00EE06AD000E068D071D021D00895D5
:1000E00000916000023010F403D001C019D00895CF
:1000F0000F9355D000ED59D000E057D050D001ED0E
:1001000054D057D003B10093660053D003B100938D
:10011000670052D003B10093680051D00F91089549
:100120000F933DD000ED41D000E03FD038D001ED3D
:100130003CD03FD003B1009366003BD003B10093A5
:10014000670037D003B10093680033D003B1009348
:1001500069002FD003B100936A002BD003B1009344
:100160006B002AD003B100936C0029D00F91089541
:100170000F9315D000ED19D000E017D00091660064
:1001800014D00091670011D0009168000ED017D0F4
:100190000F9108950BE000B900E001B9089504EA59
:1001A00006BF06B707FFFDCF089503B904E806BFF1
:1001B000F8CF04EC06BFF5CF04E806BFF2CF04E9A0
:1001C00006BF0895009168001091670027C0009154
:1001D00067001091660022C021C000916A00109152
:1001E0006B001CC000E210916C0018C00F931F93AD
:1001F0002F939E7F00916100002309F04FC070DFB4
:1002000000916000053030F4E5E2F0E0E00F1127E6
:10021000F11F0994002700936000F1CF2091600046
:100220002330E9F0202F22952F706DD020936200AB
:10023000202F2F7068D000916000003011F492FFE1
:10024000206820936300212F22952F705CD020938B
:100250006400212F2F7057D0209365000FC000E459
:10026000009362000093630010916900212F2F70AA
:100270004AD0209364000093650000C0009165009F
:100280003DD0009164003AD00091630037D00091D6
:10029000620034D0C29A0000C2980FC0550C052DE0
:1002A0000093620000936300009364000093650074
:1002B000002321F701E0502EE1CF2F911F910F91E4
:1002C00008950F930FB70F93916004E090270F915B
:1002D0000FBF0F9118950F930FB70F930BB70F77B1
:1002E0000BBF06EF02BF05E003BF0F910FBF0F91D9
:1002F000189501E50DB900E00EB908950FB90EB1DA
:1003000007FFFDCF0895EF93FF931F93E0E4F0E024
:10031000E20F1127F11F24911F91FF91EF91089592
:00000001FF
