:020000020000FC
:0400000024C047C011
:100040003F306D79725B5F317F7B04E00EBF0FE55F
:100050000DBF5AD026D063D06AD0009162000468E8
:1000600000936200789490FF02C09E7F6AD091FF57
:1000700002C09D7F59D092FF02C09B7F57D0009154
:10008000620007FF04C00F770093620087D0889555
:10009000EACF0F930FB70F9393600F910FBF0F919C
:1000A000189500270093700000936F0000936E0076
:1000B000009372000093730000937400009371002A
:1000C000009360000093610099270093620003E3AE
:1000D000E1D000936E0002E2DDD000936F0001E1F9
:1000E000D9D00093700007E0D5D00093710006E0EE
:1000F000D1D00093720002E0CDD00093730006E2ED
:10010000C9D00093740008950FE207BBC198C09A4C
:100110008A98929AA498A598AC9AAD9A089503E00B
:1001200005BF00E40BBF0895B09A0895B19A9AD024
:100130009ED000EDA2D00EE0A0D000E09ED0A7D0CF
:1001400008950F9394D000ED98D000E096D08FD012
:1001500001ED93D096D003B10093670092D003B124
:100160000093680091D003B10093690090D00F9183
:1001700008950F937CD000ED80D000E07ED00091F8
:100180006E0098D07AD000916F0094D076D0009114
:10019000700090D072D07BD00F9108950F9367D0EC
:1001A00000ED6BD00091620000FF09C00E7F00934C
:1001B000620000E062D000916E007CD042C001FF7E
:1001C00009C00D7F0093620001E057D000916F00DD
:1001D00071D037C002FF09C00B7F0093620002E0BC
:1001E0004CD00091700066D02CC003FF09C0077F7F
:1001F0000093620003E041D0009171005BD021C008
:1002000004FF09C00F7E0093620004E036D0009125
:10021000720050D016C005FF09C00F7D0093620028
:1002200005E02BD00091730045D00BC006FF0BC03A
:100230000F7B0093620006E020D0009174003AD05A
:1002400000C01BD024D00F9108950F9310D000ED63
:1002500014D002E012D0009170002CD00ED017D034
:100260000F9108950BE000B900E001B9089504EA88
:1002700006BF06B707FFFDCF089503B904E806BF20
:10028000F8CF04EC06BFF5CF04E806BFF2CF04E9CF
:1002900006BF08951F932F93102F1F7002950F70A4
:1002A000202F000F000F000F020F020F010F2F91E0
:1002B0001F9108951F9310E00A3018F00A5013950B
:0C02C000FBCF1295012B1F9108950895AB
:00000001FF
