:020000020000FC
:1000000029C0F1C118951895189518951895189547
:02001000189541
:100014001895189518951895189518951895189574
:0200240018952D
:100040003F065B4F666D7D077F6F84C088C08DC0A3
:100050008BC090C004E00EBF0FE50DBF1CD009D0CF
:1000600026D02CD1A9D13394789470FD25D08895D1
:10007000FCCF1124552466247724882499245527FD
:10008000772702E00093610000E0009360000AE03F
:1000900000936E0008950FEA07BBC1988A98929A60
:1000A000A498A598AC9AAD9A00E001BB089502E02F
:1000B00005BF00E40BBF089574FD0AD07E7F309128
:1000C0006100332319F0B5D02DD001C057D0089569
:1000D00030916E003A9530936E0031F400277F7EA8
:1000E0000093610000936000089508B310E80127B1
:1000F00008BB08953F9330916E003A9530936E009F
:1001000079F435E030936E003091600033953530EE
:1001100018F43093600004C07D7F33273093600073
:100120003F9108953F9330916E003A9530936E0061
:1001300079F435E030936E003091610033953830BA
:1001400018F430936100ECCFE5D031E030936100DA
:100150003F910895009168001091670023C00091BD
:100160006700109166001EC01DC000916A001091CA
:100170006B0018C000E210916C0014C00F931F9325
:100180002F93EF93FF93A5D000916000053030F4DA
:10019000E5E2F0E0E00F1127F11F0994002700933A
:1001A0006000F1CF20916000233009F1202F2295CB
:1001B0002F700CD120936200202F2F7007D1009157
:1001C0006000003031F471FD03C02068726001C02E
:1001D0007D7F20936300212F22952F70F7D02093ED
:1001E0006400212F2F70F2D0209365000EC000E430
:1001F0000093620000936300009365001091690012
:10020000212F2F70E3D02093640000916500D9D096
:1002100000916400D6D000916300D3D000916200B9
:10022000D0D0C29AC298FF91EF912F911F910F9158
:1002300008950F931F932F93EF93FF930091610005
:10024000083028F4202FC2D02093620004C0222757
:10025000209361002DC013D0A6E6B0E00A95A00F50
:100260000027B01F1C91212F22952F70AFD0209313
:100270006400212F2F70AAD0209365000AC071FD61
:1002800003C02CE5726002C023E67D7F20936300EB
:1002900008950091650095D00091640092D000917E
:1002A00063008FD0009162008CD0C29A0000C29887
:1002B000FF91EF912F911F910F91089565D069D013
:1002C00000ED6DD00EE06BD000E069D072D022D08E
:1002D000089500916000023010F403D001C01AD0DC
:1002E00008950F937E7F55D000ED59D000E057D090
:1002F00050D001ED54D057D003B10093660053D0D5
:1003000003B10093670052D003B10093680051D04D
:100310000F9108950F933DD000ED41D000E03FD004
:1003200038D001ED3CD03FD003B1009366003BD004
:1003300003B10093670037D003B10093680033D056
:1003400003B1009369002FD003B100936A002BD052
:1003500003B100936B002AD003B100936C0029D045
:100360000F9108950F9315D000ED19D000E017D02C
:100370000091660014D00091670011D000916800D0
:100380000ED017D00F9108950BE000B900E001B92D
:10039000089504EA06BF06B707FFFDCF089503B925
:1003A00004E806BFF8CF04EC06BFF5CF04E806BFAB
:1003B000F2CF04E906BF089501E50DB901E00EB9D9
:1003C00008950FB90EB107FFFDCF0895EF93FF9386
:1003D0001F93E0E4F0E0E20F1127F11F24911F9139
:1003E000FF91EF9108955FB60F9371600F915FBE1B
:0203F00018955E
:00000001FF
