:020000020000FC
:0400000024C032C026
:100040003F306D79725B5F317F7B04E00EBF0FE55F
:100050000DBF33D011D03CD040D0789470FF02C097
:100060007E7F45D08895FACF0F930FB70F937160BD
:100070000F910FBF0F911895002700936F00009309
:100080006E0000936D000093710000937200009366
:100090007300009370000093600000936100772765
:1000A00003E377D000936D0002E273D000936E00FB
:1000B00001E16FD000936F0008950FE207BBC19874
:1000C000C0988A98929AA498A598AC9AAD9A0895E7
:1000D00003E005BF00E40BBF089543D047D000ED17
:1000E0004BD00EE049D000E047D050D008950F9398
:1000F0003DD000ED41D000E03FD038D001ED3CD004
:100100003FD003B1009366003BD003B1009367007A
:100110003AD003B10093680039D00F9108950F933E
:1001200025D000ED29D000E027D000916D003FD010
:1001300023D000916E003BD01FD000916F0037D0CC
:100140001BD024D00F9108950F9310D000ED14D040
:1001500002E012D000916F002AD00ED017D00F917C
:1001600008950BE000B900E001B9089504EA06BF64
:1001700006B707FFFDCF089503B904E806BFF8CF1F
:1001800004EC06BFF5CF04E806BFF2CF04E906BFD2
:1001900008951F93102F1F7002950F70202F000FCE
:1001A000000F000F020F020F010F1F9108951F9300
:1001B00010E00A3018F00A501395FBCF1295012B6E
:0401C0001F910895EE
:00000001FF
