:020000020000FC
:1000000024C028C118951895189518951895189515
:02001000189541
:100014001895189518951895189518951895189574
:0200240018952D
:100040003F065B4F666D7D077F6F04E00EBF0FE5D7
:100050000DBF19D009D023D068D0E5D0339478945F
:1000600070FD27D00000FCCF11245524662477248E
:10007000882499245527772700E00093610000E049
:100080000093600008950FEA07BBC1988A98929A7E
:10009000A498A598AC9AAD9A00E001BB089502E03F
:1000A00005BF00E40BBF089508B310E8012708BBA3
:1000B00008950F931F932F937E7F4AD0009168007D
:1000C00010916700202F22952F70B7D020936200E7
:1000D000202F2F70B2D000916000003031F471FDFC
:1000E00003C02068726001C07D7F20936300212FD0
:1000F00022952F70A2D020936400212F2F709DD0C5
:10010000209365000091650093D00091640090D029
:10011000009163008DD0009162008AD0C29AC2988B
:10012000C3DF2F911F910F91089565D069D000ED25
:100130006DD00EE06BD000E069D072D022D008956F
:1001400000916000023010F403D001C01AD008956D
:100150000F937E7F55D000ED59D000E057D050D09E
:1001600001ED54D057D003B10093660053D003B1D2
:100170000093670052D003B10093680051D00F91F3
:1001800008950F933DD000ED41D000E03FD038D02E
:1001900001ED3CD03FD003B1009366003BD003B1EA
:1001A0000093670037D003B10093680033D003B1E8
:1001B000009369002FD003B100936A002BD003B1E4
:1001C00000936B002AD003B100936C0029D00F91EB
:1001D00008950F9315D000ED19D000E017D00091CD
:1001E000660014D00091670011D0009168000ED015
:1001F00017D00F9108950BE000B900E001B9089500
:1002000004EA06BF06B707FFFDCF089503B904E867
:1002100006BFF8CF04EC06BFF5CF04E806BFF2CF67
:1002200004E906BF089501E50DB900E00EB908958F
:100230000FB90EB107FFFDCF0895EF93FF931F9302
:10024000E0E4F0E0E20F1127F11F24911F91FF91EC
:10025000EF9108955FB60F9371600F915FBE18958F
:00000001FF
