:020000020000FC
:0200000024C01A
:0200040047C0F3
:020012004EC0DE
:100040003F306D79725B5F317F7B04E00EBF0FE55F
:100050000DBF12D008D015D0789492FF02C09B7FBC
:1000600047D08895FACF1124992703E0202E00EF7E
:10007000302E802F402E089500E001BB0FE307BB18
:10008000089508E005BF0BB700680BBF09B7016012
:1000900009BF08950F930FB70F930BB70F770BBFDF
:1000A00006EF02BF05E003BF0F910FBF0F91189538
:1000B000C09A0FB60F930CEE02BF80B3807F8315FA
:1000C00021F0382E03E0202E0FC021102A9461F475
:1000D0009460482E80EF382E222400E003BF00E811
:1000E0000ABF0BB700680BBF0F910FBEC0981895E1
:1000F00044FE09D045FE0CD046FE10D047FE13D07A
:1001000000EF402E089508B314E0012708BB0895BE
:1001100008B318E0012708BB8394089508B310E1E1
:10012000012708BB089508B310E2012708BB089512
:00000001FF
