:020000020000FC
:0200000024C01A
:0200040047C0F3
:020012004EC0DE
:100040003F306D79725B5F317F7B04E00EBF0FE55F
:100050000DBF12D008D015D0789492FF02C09B7FBC
:100060004DD08895FACF1124992703E0202E00EF78
:10007000302E802F402E089500E001BB0FE107BB1A
:10008000089508E005BF0BB700680BBF09B7016012
:1000900009BF08950F930FB70F930BB70F770BBFDF
:1000A00006EF02BF05E003BF0F910FBF0F91189538
:1000B0000FB60F930CEE02BF80B3807F803F61F0DC
:1000C000831521F0382E03E0202E0FC021102A9432
:1000D00061F49460482E09C0382E222400E003BF4A
:1000E00000E80ABF0BB700680BBF0F910FBE189551
:1000F000222400E003BF0F910FBE189544FE09D0E3
:1001000045FE0ED046FE13D047FE18D000EF402E1D
:100110000895000008B314E0012708BB000008950B
:10012000000008B318E0012708BB00000895000094
:1001300008B310E1012708BB00000895000008B3D0
:0A01400010E2012708BB000008953B
:00000001FF
