:020000020000FC
:0400000024C045C013
:100040003F306D79725B5F317F7B04E00EBF0FE55F
:100050000DBF5AD024D063D068D05ED10091620029
:10006000066700936200789490FF02C09E7F68D07C
:1000700091FF02C09D7F55D192FF02C09B7F54D05B
:1000800000916200002309F0B0D08895EDCF0F9366
:100090000FB70F9393600F910FBF0F911895002723
:1000A000009371000093700000936F000093730041
:1000B0000093740000937500009372000093600039
:1000C000009361009927009363000093620003E3AB
:1000D00008D100936F0006E304D10093700004E19F
:1000E00000D10093710007E0FCD00093720007E09C
:1000F000F8D00093730001E0F4D00093740006E29E
:10010000F0D00093750008950FE207BBC198C09A24
:100110008A98929AA498A598AC9AAD9A089503E00B
:1001200005BF00E40BBF0895B19AC3D0C7D000ED5E
:10013000CBD00EE0C9D000E0C7D0D0D019D0089500
:100140000F93BCD000EDC0D000E0BED0B7D001ED21
:10015000BBD0BED003B100936800BAD003B1009306
:100160006900B9D003B100936A00B8D00F91089527
:100170000F93A4D000EDA8D000E0A6D09FD001ED51
:10018000A3D0A6D003B100936800A2D003B100931E
:1001900069009ED003B100936A009AD003B1009326
:1001A0006B0096D003B100936C0092D003B1009322
:1001B0006D0091D003B100936E0090D00F9108951F
:1001C0000F937CD000ED80D000E07ED000916F00D6
:1001D00098D07AD00091700094D076D000917100C0
:1001E00090D072D07BD00F9108950F9367D000ED1F
:1001F0006BD00091620000FF09C00E7F0093620087
:1002000000E062D000916F007CD042C001FF09C0C5
:100210000D7F0093620001E057D00091700071D013
:1002200037C002FF09C00B7F0093620002E04CD090
:100230000091710066D02CC003FF09C0077F0093B6
:10024000620003E041D0009172005BD021C004FF46
:1002500009C00F7E0093620004E036D00091730065
:1002600050D016C005FF09C00F7D0093620005E065
:100270002BD00091740045D00BC006FF0BC00F7B44
:100280000093620006E020D0009175003AD000C0D3
:100290001BD024D00F9108950F9310D000ED14D0EF
:1002A00002E012D0009171002CD00ED017D00F9127
:1002B00008950BE000B900E001B9089504EA06BF13
:1002C00006B707FFFDCF089503B904E806BFF8CFCE
:1002D00004EC06BFF5CF04E806BFF2CF04E906BF81
:1002E00008951F932F93102F1F7002950F70202FCA
:1002F000000F000F000F020F020F010F2F911F912F
:1003000008951F9310E00A3018F00A501395FBCFA0
:100310001295012B1F91089501E50DB900E00EB96A
:1003200008950F930FB70F931F932F9300916900B8
:1003300010916800202F22952F702BD020936400FD
:10034000202F2F7026D020936500212F22952F700B
:1003500020D020936600212F2F701BD020936700A0
:100360000091670011D0009166000ED000916500E9
:100370000BD00091640008D0C29AC2982F911F91AF
:100380000F910FBF0F9108950FB90EB107FFFDCF69
:100390000895EF93FF930F93E0E4F0E0E20F00275E
:0E03A000F01F24910F91FF91EF9108950895A1
:00000001FF
