:020000020000FC
:0400000030C005C245
:100040003F065B4F666D7D077F6FC3C0C7C0CCC0E6
:10005000CAC0CFC02AC13BC14CC15DC168C179C112
:100060008AC104E00EBF0FE50DBF1CD009D027D018
:1000700033D0E5D1789490FDC1D191FD8895FBCF27
:1000800011240027992700E00093610000E000930D
:10009000600003E0202E00EF302E802F402E01E084
:1000A000502E08950FE207BBC198C09A8A98929A81
:1000B000A498A598AC9AAD9A00E001BB089503E01E
:1000C00005BF00E40BBF08E005BF0BB700680BBF1E
:1000D00009B7016009BF089564D068D000ED6CD005
:1000E0000EE06AD000E068D071D021D00895009170
:1000F0006000023010F403D001C019D008950F93AE
:1001000055D000ED59D000E057D050D001ED54D07B
:1001100057D003B10093660053D003B1009367003A
:1001200052D003B10093680051D00F9108950F93FE
:100130003DD000ED41D000E03FD038D001ED3CD0C3
:100140003FD003B1009366003BD003B1009367003A
:1001500037D003B10093680033D003B10093690036
:100160002FD003B100936A002BD003B100936B0032
:100170002AD003B100936C0029D00F9108950F93FA
:1001800015D000ED19D000E017D00091660014D012
:100190000091670011D0009168000ED017D00F9128
:1001A00008950BE000B900E001B9089504EA06BF24
:1001B00006B707FFFDCF089503B904E806BFF8CFDF
:1001C00004EC06BFF5CF04E806BFF2CF04E906BF92
:1001D0000895009168001091670023C000916700A6
:1001E000109166001EC01DC000916A0010916B0046
:1001F00018C000E210916C0014C00F931F932F934E
:10020000EF93FF9374DF00916000053030F4E5E276
:10021000F0E0E00F1127F11F099400270093600020
:10022000F1CF209160002330E9F0202F22952F702C
:1002300010D120936200202F2F700BD1009160000D
:10024000003011F492FF206820936300212F229543
:100250002F70FFD020936400212F2F70FAD02093AD
:1002600065000EC000E400936200009363000093F9
:10027000650010916900212F2F70EBD0209364004E
:1002800000916500E1D000916400DED00091630030
:10029000DBD000916200D8D0C29A0000C298FF91D2
:1002A000EF912F911F910F91089526E02093620006
:1002B00088D010916600212F22952F70CAD02093EC
:1002C0006400212F2F70C5D02093650082C02BE5DC
:1002D0002093620076D010916700212F22952F7015
:1002E000B8D020936400212F2F70B3D020936500E5
:1002F00070C02FE42093620064D010916800212F19
:1003000022952F70A6D020936400212F2F70A1D0AA
:10031000209365005EC026E62093620052D01091C3
:100320006900212F2F7095D02093650052C02DE6D3
:100330002093620046D010916A00212F22952F70E1
:1003400088D020936400212F2F7083D020936500E4
:1003500040C02DE72093620034D010916B00212F14
:1003600022952F7076D020936400212F2F7071D0AA
:10037000209365002EC027E02093620022D01091C8
:100380006C00212F22952F7064D020936400212FC0
:100390002F705FD0209365001CC00F931F932F9385
:1003A000EF93FF9300916100083038F40A95EAE278
:1003B000F0E0E00F1127F11F09940027009361007E
:1003C00017C092FF02C02CE501C023E62093630012
:1003D00008950091650038D00091640035D00091F7
:1003E000630032D0009162002FD0C29A0000C29800
:1003F000FF91EF912F911F910F9108959E7F309162
:100400006100332311F0C9DF01C0F7DE08950F93B7
:100410000FB70F93916004E090270F910FBF0F91DA
:1004200018950F930FB70F930BB70F770BBF06EF0E
:1004300002BF05E003BF0F910FBF0F91189501E5B3
:100440000DB900E00EB908950FB90EB107FFFDCF49
:100450000895EF93FF931F93E0E4F0E0E20F11277C
:0C046000F11F24911F91FF91EF9108956E
:00000001FF
