:020000020000FC
:100000002DC03EC243C2189518951895189518959D
:1000100018954CC218951895189518951895189517
:06002000189518951895D3
:100040003F065B4F666D7D077F6F96C09AC09FC06D
:100050009DC0A2C086C27FC273C263C204E00EBF4D
:100060000FE50DBF1ED00BD028D03AD1F2D133947A
:10007000789470FD30D072FD3FD28895FACF11246C
:10008000552466247724882499245527772700E06F
:100090000093610000E0009360000AE000936E00AE
:1000A00008950FEA07BBC1988A98929AA498A598D8
:1000B000AC9AAD9A00E001BB089502E005BF00E4F0
:1000C0000BBF05B7086005BF0BB700680BBF09B7CA
:1000D000016009BF089573FD09D07E7F2091610002
:1000E000222311F0B8D001C05BD008950F932F9355
:1000F00020916E002A9520936E0031F40027777FBF
:1001000000936100009360002F910F91089508B350
:1001100010E8012708BB08953F9330916E003A958F
:1001200030936E0079F435E030936E0030916000CA
:100130003395353018F43093600004C07D7F332749
:10014000309360003F9108953F9330916E003A954F
:1001500030936E0079F435E030936E003091610099
:100160003395383018F430936100ECCFE5D031E0AE
:10017000309361003F9108950091680010916700ED
:1001800023C000916700109166001EC01DC0009141
:100190006A0010916B0018C000E210916C0014C04E
:1001A0000F931F932F93EF93FF93A5D000916000BF
:1001B000053030F4E5E2F0E0E00F1127F11F09947B
:1001C000002700936000F1CF20916000233009F1F7
:1001D000202F22952F7047D120936200202F2F705F
:1001E00042D100916000003031F471FD03C02068FD
:1001F000726001C07D7F20936300212F22952F70B4
:1002000032D120936400212F2F702DD120936500CF
:100210000EC000E400936200009363000093650049
:1002200010916900212F2F701ED12093640000913E
:10023000650014D10091640011D1009163000ED1CA
:10024000009162000BD1C29AC298FF91EF912F9159
:100250001F910F9108950F931F932F93EF93FF9387
:1002600000916100083028F4202FFDD02093620017
:1002700004C02227209361002DC013D0A6E6B0E071
:100280000A95A00F0027B01F1C91212F22952F70D7
:10029000EAD020936400212F2F70E5D020936500D1
:1002A0000AC071FD03C02CE5726002C023E67D7FA9
:1002B00020936300089500916500D0D00091640000
:1002C000CDD000916300CAD000916200C7D0C29A1D
:1002D0000000C298FF91EF912F911F910F91089507
:1002E000A0D0A4D000EDA8D00EE0A6D000E0A4D00D
:1002F000ADD022D0089500916000023010F403D0F8
:1003000001C01AD008950F937E7F90D000ED94D055
:1003100000E092D08BD001ED8FD092D003B100934A
:1003200066008ED003B1009367008DD003B10093B7
:1003300068008CD00F9108950F9378D000ED7CD099
:1003400000E07AD073D001ED77D07AD003B100937A
:10035000660076D003B10093670072D003B10093BA
:1003600068006ED003B1009369006AD003B10093B6
:100370006A0066D003B100936B0065D003B10093AF
:100380006C0064D00F9108950F9350D000ED54D0BD
:1003900000E052D0009166004FD0009167004CD031
:1003A0000091680049D052D00F9108950F933ED02C
:1003B00000ED42D000916100013029F400E03CD012
:1003C000009166002AC0023029F401E035D0009186
:1003D000670023C0033029F402E02ED000916800AA
:1003E0001CC0043029F403E027D00091690015C037
:1003F000053029F404E020D000916A000EC00630D8
:1004000029F405E019D000916B0007C0073039F4DA
:1004100006E012D000916C0000C00ED017D00F91F2
:1004200008950BE000B900E001B9089504EA06BFA1
:1004300006B707FFFDCF089503B904E806BFF8CF5C
:1004400004EC06BFF5CF04E806BFF2CF04E906BF0F
:10045000089501E50DB901E00EB908950FB90EB187
:1004600007FFFDCF0895EF93FF931F93E0E4F0E0C3
:10047000E20F1127F11F24911F91FF91EF91089531
:100480005FB60F9371600F915FBE18956FB60F93B3
:100490000BB70F770BBF06EF02BF05E003BF00E805
:1004A0000ABF0BB700680BBF0F916FBEC09A7FB633
:1004B0000F934F9306EF02BF40B34095407F442314
:1004C00071F0839405E0801690F07460429550E0DE
:1004D00043FD03C05395440FFBCF50936D00882418
:1004E00000E003BF00E80ABF0BB700680BBF4F91E5
:1004F0000F917FBEC09818950F930AD07B7F7860CC
:1005000002E300936E00002700936D000F910895A1
:1005100000916D00EAE2F0E0E00F1127F11F09946D
:10052000089500916100002311F021D008950091F9
:1005300060000395063008F00027009360000895DE
:10054000009161000395083008F0002700936100D6
:1005500000936000089500916100002309F010D01D
:10056000089500916100002309F023D008950091BF
:1005700061001CDF00270093610000936000089574
:10058000009161000023A1F0A6E6B0E0102F1A95BB
:10059000A10F1127B11F0C910ED00F5F202F2F70CC
:1005A0002A3008F00A5F011708F000E00C9353DED0
:1005B0000895EA94089530916100313069F0323045
:1005C00059F0333079F0343049F0353069F0363055
:1005D00039F0373059F0089510E6089518E008957D
:1005E00013E1089514E2089512E3089519E90895B6
:00000001FF
