:020000020000FC
:100000002DC0AFC2B4C218951895189518951895BB
:100010001895BDC2189518951895189518951895A6
:06002000189518951895D3
:100040003F065B4F666D7D077F6F9CC0A0C0A5C05B
:10005000A3C0A8C007C3FAC2EEC2D2C204E00EBF5A
:100060000FE50DBF21D00CD038D079D162D227D086
:100070002FD0789470FD3FD072FDADD28895FACF25
:10008000112455246624772488249924552777271A
:1000900000E00093610000E00093600000270093FF
:1000A0006D000093710008950FEA07BB8A98929A39
:1000B000A498A598AC9AAD9A00E001BB089501E818
:1000C0000FBD09E00EBD00270BBD08EC0ABD089569
:1000D00000E607B903E806B9089502E005BF00E4A9
:1000E0000BBF05B7086005BF0BB700680BBF09B7AA
:1000F000016009BF089573FD0BD028D07E7F19D011
:1001000020916100222311F0ACD001C04FD008959E
:100110000F932F93209170002A952093700031F453
:100120000027777F00936100009360002F910F916B
:1001300008950F931F93369A3699FECF05B11FEF9E
:10014000101B10936E001F910F9108950F938799C4
:100150000AC07F7B009171000395053019F0009370
:10016000710007C008D076FD04C00027009371001D
:1001700070640F9108950F9308B310E8012708BB2E
:100180000F910895009168001091670023C00091BD
:100190006700109166001EC01DC000916A0010919A
:1001A0006B0018C000E210916C0014C00F931F93F5
:1001B0002F93EF93FF93DED000916000053030F471
:1001C000E5E2F0E0E00F1127F11F0994002700930A
:1001D0006000F1CF20916000233009F1202F22959B
:1001E0002F70B2D120936200202F2F70ADD10091DB
:1001F0006000003031F471FD03C02068726001C0FE
:100200007D7F20936300212F22952F709DD1209315
:100210006400212F2F7098D1209365000EC000E458
:1002200000936200009363000093650010916900E1
:10023000212F2F7089D120936400009165007FD118
:10024000009164007CD10091630079D1009162003B
:1002500076D1C29AC298FF91EF912F911F910F9181
:1002600008950F931F932F93EF93FF9300916100D5
:10027000093038F4083039F1202F66D1209362001C
:1002800004C02227209361002EC013D0A6E6B0E060
:100290000A95A00F0027B01F1C91212F22952F70C7
:1002A00053D120936400212F2F704ED120936500ED
:1002B0000BC071FD03C02CE5726002C023E67D7F98
:1002C00020936300089515D00091650038D1009106
:1002D000640035D10091630032D1009162002FD1CA
:1002E000C29A0000C298FF91EF912F911F910F9138
:1002F00008950F931F932F933F934F9375FF83D0D0
:1003000000916D00112707FF03C00095039511E0D0
:1003100020E030E040E0043610F0045621E050E0E8
:100320000A3018F00A505395FBCF352F402F0CD1CF
:1003300020936300232F08D120936400242F04D13D
:1003400020936500113011F010E001C010E410930B
:1003500062004F913F912F911F910F910895D1D03D
:10036000D5D000EDD9D00EE0D7D000E0D5D0DED08A
:1003700022D0089500916000023010F403D001C033
:100380001AD008950F937E7FC1D000EDC5D000E054
:10039000C3D0BCD001EDC0D0C3D003B10093660080
:1003A000BFD003B100936700BED003B100936800D3
:1003B000BDD00F9108950F93A9D000EDADD000E00E
:1003C000ABD0A4D001EDA8D0ABD003B100936600B0
:1003D000A7D003B100936700A3D003B100936800D6
:1003E0009FD003B1009369009BD003B100936A00D2
:1003F00097D003B100936B0096D003B100936C00CB
:1004000095D00F9108950F9381D000ED85D000E134
:1004100083D07CD001ED80D086D003B100936D00F5
:1004200085D070620F9108950F9370D000ED74D055
:1004300000E172D000916D006FD078D067D000EDF0
:100440006BD00EE069D062D001ED66D06CD003B104
:1004500000620F935BD000ED5FD00EE05DD00F9196
:100460005BD064D00F9108950F9350D000ED54D01D
:1004700000E052D0009166004FD0009167004CD050
:100480000091680049D052D00F9108950F933ED04B
:1004900000ED42D000916100013029F400E03CD031
:1004A000009166002AC0023029F401E035D00091A5
:1004B000670023C0033029F402E02ED000916800C9
:1004C0001CC0043029F403E027D00091690015C056
:1004D000053029F404E020D000916A000EC00630F7
:1004E00029F405E019D000916B0007C0073039F4FA
:1004F00006E012D000916C0000C00ED017D00F9112
:1005000008950BE000B900E001B9089504EA06BFC0
:1005100006B707FFFDCF089503B904E806BFF8CF7B
:1005200004EC06BFF5CF04E806BFF2CF04E906BF2E
:10053000089501E50DB90EB10E7F0EB908950FB9FA
:100540000EB107FFFDCF0895EF93FF931F93E0E4F3
:10055000F0E0E20F1127F11F24911F91FF91EF911D
:1005600008955FB60F9371600F915FBE18956FB6D7
:100570000F930BB70F770BBF06EF02BF05E003BF6A
:1005800000E80ABF0BB700680BBF0F916FBE7FB6C4
:100590000F934F9306EF02BF40B34095407F442333
:1005A00071F0839405E0801690F07460429550E0FD
:1005B00043FD03C05395440FFBCF50936F00882435
:1005C00000E003BF00E80ABF0BB700680BBF4F9104
:1005D0000F917FBE18950F930AD07B7F786002E35E
:1005E00000937000002700936F000F910895009111
:1005F0006F00EAE2F0E0E00F1127F11F099408957F
:1006000000916100002371F0083011F04DD009C055
:100610000BDF7F7D00270093610000936000009353
:100620006D000895009160000395063008F00027E2
:10063000009360000895009161000395093008F06F
:10064000002700936100009360000895009161000D
:10065000002331F0083011F030D003C087D001C042
:100660000DD0089500916100002331F0083011F0A1
:100670003FD003C085D001C00CD008950AB51BB58A
:100680000A3010F0055001C00DE711271BBD0ABD4F
:1006900008950AB51BB50A3F10F40B5F01C00DE7C2
:1006A00011271BBD0ABD089500916100EFDE0027F0
:1006B00000936100009360000895009161000023A1
:1006C000B1F0A6E6B0E0102F1A95A10F1127B11FC7
:1006D0000C912FD00F5F202F2F702A3008F00A5F67
:1006E000011708F000E00C937D7FBBDD00C008958A
:1006F000109161001123E1F0A6E6B0E01A95A10F78
:100700001127B11F0C91002339F00150202F2F70B9
:100710002F3059F4065009C00CD0012F0150202F62
:100720002F702F3011F4065000C00C939ADD00C0DA
:10073000089530916100313069F0323059F0333032
:1007400079F0343049F0353069F0363039F03730EF
:1007500059F0089510E6089518E0089513E10895FA
:1007600014E2089512E3089519E908950F93009192
:100770006D000F3719F0039500936D000F910895E8
:100780000F9300916D00003819F00A9500936D00E9
:040790000F91089528
:00000001FF
